:020000040800F2
:10000000980B00208D6F0008F1020008F302000831
:10001000F7020008FB020008FF02000800000000D1
:1000200000000000000000000000000003030008C2
:10003000050300080000000007030008090300088A
:10004000A76F0008A76F0008A76F0008A76F000838
:10005000A76F0008A76F0008A76F0008A76F000828
:10006000A76F0008A76F0008A76F0008A76F000818
:10007000A76F0008A76F0008A76F0008A76F000808
:10008000A76F0008A76F0008A76F0008A76F0008F8
:10009000A76F0008A76F0008A76F0008A76F0008E8
:1000A000A76F0008A76F0008A76F0008A76F0008D8
:1000B000A76F000851650008A76F0008A76F000828
:1000C000A76F0008A76F0008A76F0008A76F0008B8
:1000D000A76F0008D76E0008A76F0008A76F000879
:1000E000A76F0008A76F0008A76F0008A76F000898
:1000F000A76F0008A76F0008A76F0008A76F000888
:10010000A76F0008FD200008A76F0008A76F000870
:10011000A76F0008A76F0008A76F0008A76F000867
:10012000A76F0008A76F0008A76F0008A76F000857
:10013000A76F0008A76F0008A76F0008A76F000847
:10014000A76F0008A76F0008A76F0008A76F000837
:10015000A76F0008A76F0008A76F0008A76F000827
:10016000A76F0008A76F0008A76F0008A76F000817
:10017000A76F0008A76F0008A76F0008A76F000807
:10018000A76F0008A76F000800F002F800F044F81D
:100190000AA090E8000C82448344AAF10107DA45E2
:1001A00001D100F039F8AFF2090EBAE80F0013F0F0
:1001B000010F18BFFB1A43F00103184734BB0000BE
:1001C00054BB0000103A24BF78C878C1FAD852074F
:1001D00024BF30C830C144BF04680C6070470000C1
:1001E0000023002400250026103A28BF78C1FBD840
:1001F000520728BF30C148BF0B607047642908F020
:100200006387782908F09C87002070471FB50AF0A3
:1002100082FE1FBD10B510BD09F064FA1146FFF74C
:10022000F5FF00F011F809F082FA03B4FFF7F2FFCE
:1002300003BC06F0F1FD000030BF72B6704762B635
:10024000704780F3088870474FF4A06006F0BEFE48
:10025000A82006F05FFD05F02BFC9FED1C0A05F0C1
:100260002DFC06F001F806F027F94FF4164006F0D1
:10027000E0FD00201649086016490860164908602C
:100280001649086016490860164908601649086052
:100290001649086005F050FE05F0B2FD4FF47A7083
:1002A00006F09AFD00F03AF902F0F4FA02F006FBCB
:1002B00042F2CF01C72006F01FF905E0002001E05F
:1002C000401E401C6428FBDBF8E700000000704281
:1002D00024000020280000202C00002030000020F6
:1002E00034000020380000203C00002040000020A6
:1002F000704700BFFEE700BFFEE700BFFEE700BF9C
:10030000FEE7704770477047704700000CB500204B
:10031000019000907648006840F48030744908608D
:1003200000BF7348006800F4003000900198401C42
:100330000190009818B90198B0F5A04FF1D16C4820
:10034000006800F4003010B10120009001E00020AE
:1003500000900098012846D165484030006840F080
:1003600080506349403108606248006840F4404072
:10037000604908605E48083000685D4908310860DF
:100380000846006840F4004008600846006840F4F1
:10039000A05008605848091F0860081F006840F016
:1003A0008070091F086000BF5148006800F00070AD
:1003B0000028F9D040F20570504908604C480830D8
:1003C000006820F003004A490831086008460068C8
:1003D00040F00200086000BF45480830006800F0A7
:1003E0000C000828F8D10CBD10B54548006840F451
:1003F0007000434908603E48006840F001003C49F5
:10040000086000203A4908310860394800683D49D1
:100410000840374908603C48091D0860081F00680B
:1004200020F48020091F0860002031490C31086049
:10043000FFF76CFF4FF0006031498039086010BD54
:1004400070B500200022022300240221284D083527
:100450002D6805F00C0020B1042806D0082834D1FE
:1004600007E02A4D2A4E356033E02A4D284E35608C
:100470002FE01F4D2D1D2D68C5F380541C4D2D1DE3
:100480002D6805F03F0154B1224DB5FBF1F5184E32
:10049000361D3668C6F3881605FB06F209E01B4DCB
:1004A000B5FBF1F5124E361D3668C6F3881605FB0E
:1004B00006F20F4D2D1D2D68C5F301456D1C6B0017
:1004C000B2FBF3F5124E356003E0104D104E35606F
:1004D00000BF00BF064D08352D68C5F303150E4E4D
:1004E000705D0B4D2D68C540094E356070BD000034
:1004F000003802400070004019544007003C0240A0
:1005000088ED00E0FFFFF6FE103000240024F40028
:100510008400002040787D01880000201CB5012166
:10052000402007F0E7F84FF40040009001208DF8DC
:10053000040000208DF8060003208DF8050001203E
:100540008DF807006946044806F036FE4FF4004176
:10055000014806F0ADFE1CBD001802400020FE4917
:100560000860091D0860091D0860091D0860FA4936
:1005700024310860091D0860091D0860F748F64924
:10058000383108600020091D0860704701460020CE
:10059000012900D011B9F24B197000E026207047F4
:1005A0000146ED4A121D106820F0FF00084310605C
:1005B000704770B5044606E0E7483430056805F03A
:1005C000450000B100E0F7E700BF042007F0AEFAF5
:1005D00020B1042007F0B5FA032070BD012007F018
:1005E000A5FA20B1012007F0ACFA0120F5E7DA48BE
:1005F00010300068A04201D01020EEE740F2FF501A
:1006000007F09FFAD4481430006808210840C0B2AF
:10061000E3E72DE9FC4107460D46002600240020B3
:10062000009001900820CF490860102048604020C9
:1006300088600020C8604FF480600861084607F0B9
:10064000E2F91020FFF7B5FF044614B12046BDE8DB
:10065000FC81C54800880004C24908603720486012
:10066000402088600020C8604FF480600861084620
:1006700007F0C9F93720FFF79CFF04460CB120466C
:10068000E5E74FF0FF30B9490860082048603020A6
:1006900088600220C8600020086101204861084687
:1006A00007F0DDF90020AF490860332048604020A2
:1006B00088600020C8604FF480600861084607F039
:1006C000A2F93320FFF775FF04460CB12046BEE7C0
:1006D0000DE04FF4001007F029FA40B19E48803039
:1006E00000684DF82600761C022E00D307E09A48D9
:1006F0003430006840F22A6108400028E9D000BF89
:10070000082007F013FA20B1082007F01AFA042095
:100710009DE7022007F00AFA20B1022007F011FA43
:10072000022094E7202007F001FA20B1202007F0F2
:1007300008FA06208BE74FF4007007F0F7F928B1AC
:100740004FF4007007F0FDF9072080E740F2FF50FA
:1007500007F0F7F900980006009901F47F4140EA9C
:100760000120009901F47F0140EA1120009940EA3C
:100770001160686001980006019901F47F4140EA28
:100780000120019901F47F0140EA1120019940EA1A
:100790001160286020465AE77CB5054600240020F9
:1007A0000090019000260DB1022600E000266A4864
:1007B0001430006800F0007008B10E207CBD6A495A
:1007C000098888B26946FFF724FF04460CB1204629
:1007D000F4E7019800F4802060B3634800880004C7
:1007E0006049086037204860402088600020C86069
:1007F0004FF480600861084607F005F93720FFF7DD
:10080000D8FE04460CB12046D8E7564806600620BC
:1008100054494860402088600020C8604FF48060E0
:100820000861084607F0EFF80620FFF7C2FE04460D
:100830002046C3E72520C1E770B5044600254C4893
:100840000078032802D12725284670BD4848007843
:1008500038B147480078012803D04548007802287D
:1008600019D1B4F5805F02D127252846EDE7E0B223
:10087000FFF792FF054675B93748001D006820F460
:10088000C0503549091D08600846006820430860CB
:100890000846006808602846D7E710B50446314886
:1008A000046007202F494860402088600020C8600D
:1008B0004FF480600861084607F0A5F80720FFF7AD
:1008C00078FE10BDF0B5014600200022284B1B78B1
:1008D00081F85630244B1B88A1F85430254B1B68F7
:1008E0001A0E93090B70C2F383034B7002F00303DB
:1008F0008B70204B1B68C3F30742CA701D4B1B88CB
:10090000C3F307220A711B4B1A784A715B681A0EEF
:100910001301CB80174B5B68C3F30742CB8843EAD4
:100920001213CB8002F00F030B72124B9B88C3F3A0
:100930000722D3094B72C2F380138B72C2F34013A8
:10094000CB72C2F300130B7300234B73084B1B785D
:10095000C3B1074B1B780FE0002C0140FF07C0001C
:10096000A0000020980100209C000020AC01002085
:1009700098000020C4010020012B03D0FE4B1B78FF
:10098000032B4FD193071B0D0B61FC4B1A790B699D
:1009900043EA82030B61F94B9B681A0E0B6943EA29
:1009A00092130B61C2F3C2030B7502F007034B7580
:1009B000F24B9B68C3F3074253098B75C2F3820362
:1009C000CB7593075B0F0B76EC4B1B89C3F30722A8
:1009D0000B7E43EAD2130B760B695B1C0024C1E942
:1009E00012340B7E9B1C012404FA03F3DC17D1E9BB
:1009F0001256A5FB037C06FB03C305FB0433C1E9C8
:100A000012730C7A0123A3400B650024D1E912650F
:100A10000B6DA6FB037C05FB03C306FB0433C1E996
:100A200012732EE0D44B1B78022B2AD1D34B1A79A8
:100A300093069B0A0B61D14B9B681A0E0B6943EA24
:100A400002230B61CD4B9B68C3F307420B69134331
:100A50000B61CA4B1B89C3F307220B695B1C4FF464
:100A60000074A3FB04464FF480630025A4FB037CC1
:100A700006FB03C304FB0533C1E912734FF4007393
:100A80000B65C2F3801301F8193F93065B0E4B70A0
:100A9000BA4B1A7A4B7843EAD2134B7002F07F03B9
:100AA0008B70B64BDB681A0ED309CB70C2F34113BF
:100AB0000B71C2F382034B7193071B0F8B71AF4B0A
:100AC000DB68C3F307428B7943EA92138B71C2F35D
:100AD0004013CB7100230B7202F001034B72A74B42
:100AE0009B89C3F30722D3098B72C2F38013CB72A5
:100AF000C2F340130B73C2F300134B73C2F38103B1
:100B00008B7302F00303CB739C4B1A7B53080B745B
:100B100001234B749A4B1B681A0ECA741939984BEF
:100B20001B68C3F307421402CC85954B1B88C3F3A3
:100B30000722CB8D1343CB85914B1A7814060C6397
:100B40005B681A0E0B6B43EA02440C638C4B5B68C8
:100B5000C3F307420B6B43EA02240C63884B9B8868
:100B6000C3F307220B6B13430B63854B1A793423B2
:100B70005A54834B9B681A0E35235A54804B9B68FA
:100B8000C3F3074214068C637D4B1B89C3F3072212
:100B90008B6B43EA02448C63794B1A7A8B6B43EA82
:100BA00002248C63764BDB681A0E8B6B13438B63CA
:100BB000734BDB68C3F307423C235B5C43EA1214CC
:100BC0003C235C5413071C0DCC876D4B9B89C3F3EE
:100BD0000722CB8F1343CB87694B1A7B54084023E2
:100BE0005C54012441235C54F0BD70B500264FF4E1
:100BF000803505E06348046804F0450000B103E077
:100C00002800A5F10105F5D100BF15B104F00400DD
:100C100028B10326042006F094FF304670BD012061
:100C200006F084FF18B10126012006F08AFF40F289
:100C3000FF5006F086FF3046F0E72DE9F04105460B
:100C40000E464FF0000805E04E48076807F04500E3
:100C500000B100E0F8E700BF042006F067FF28B10C
:100C6000042006F06EFF0320BDE8F081012006F0AD
:100C70005DFF20B1012006F064FF0120F4E7414848
:100C800024380068A84201D01020EDE740F2FF5060
:100C900006F057FF3B482038046804F4604018B958
:100CA000200C30804046DFE704F4005008B11320E8
:100CB000DAE704F4804008B11020D5E704F40040DE
:100CC00008B10F20D0E74046CEE738B50024012018
:100CD000009006F092FE10B92524204638BD264823
:100CE0000078042825D000202749086002204860A9
:100CF000C02088600020C8604FF48060086108460A
:100D000006F081FEFFF771FF04460CB12046E5E7CF
:100D10001C48203800681A4908601A481C380068C6
:100D20004860184818380068886016481438006809
:100D3000C8601148007858B10F480078012807D0E2
:100D40000D480078062803D00B480078022821D1EE
:100D500000200D4908600320486040208860002082
:100D6000C8604FF480600861084606F04CFE694692
:100D70000320FFF762FF09E098000020C401002073
:100D8000D4010020342C01409801002004460CB10D
:100D90002046A3E7FE480078032816D1BDF80000DE
:100DA0000004FC490860032048604020886000205F
:100DB000C8604FF480600861084606F024FEFFF723
:100DC00014FF04460CB1204688E7F1480078042857
:100DD0002AD0BDF80000F0490860BDF8000000040A
:100DE000EC49086009204860C02088600020C86085
:100DF0004FF480600861084606F005FEFFF7F5FE37
:100E000004460CB1204669E7E4480068E4490860FC
:100E1000E248001D00684860E048083000688860CB
:100E2000DE480C300068C860002057E710B506E0C7
:100E3000DA482030046804F0450000B100E0F7E72C
:100E400000BF042006F072FE20B1042006F079FEF7
:100E5000032010BD40F2FF5006F073FE0020F8E7BB
:100E600070B500264FF4803506E0CC482030046889
:100E700004F0450000B103E02800A5F10105F4D11C
:100E800000BF15B104F0040028B10326042006F0C9
:100E900058FE304670BD04F0400018B100264020D6
:100EA00006F04FFE3046F5E770B500254FF480346C
:100EB00004E0802006F03AFE00B103E02000A4F137
:100EC0000104F6D100BF0CB9032070BD40F2FF5001
:100ED00006F037FE2846F8E72DE9F0470027002402
:100EE00000260025A046A1467620AE4908750020C0
:100EF000086048608860C8600861084606F059FDCF
:100F0000032006F076FDA5481038006840F4807094
:100F1000A2491039086000BF12E000209D49086016
:100F200048608860C8604FF480600861084606F039
:100F30006AFDFFF7B9FF044604B903E0781CC7B2A5
:100F40004A2FEADB00BF14B12046BDE8F0874FF41A
:100F5000D5709049086008204860402088600020D3
:100F6000C8604FF480600861084606F04CFDFFF74A
:100F700077FF044624B90120854908704FF0804965
:100F800000208449086037204860402088600020A5
:100F9000C8604FF480600861084606F034FD3720D1
:100FA000FFF707FB0446002C4BD134E000207949C1
:100FB000086037204860402088600020C8604FF4F7
:100FC00080600861084606F01EFD3720FFF7F1FA41
:100FD00004460CB12046B8E7734849EA00006D4961
:100FE000086029204860402088600020C8604FF4D5
:100FF00080600861084606F006FDFFF717FF04460B
:101000000CB12046A1E765480668012080EAD67049
:1010100080F001086D1CB8F1000F03D14FF6FF708E
:101020008542C3D34FF6FF70854202D31B2420466E
:101030008BE706F08040060032D002205449087049
:101040002EE01CE0594853490860012048604020C8
:1010500088600020C8604FF480600861084606F090
:10106000D2FCFFF7E3FE04460CB120466DE74B4887
:101070000668012080EAD67080F001086D1CB8F186
:10108000000F03D14FF6FF708542DBD34FF6FF70A0
:10109000854202D31B24204657E703203C490870B1
:1010A000204652E73EB5002400250121404806F0C5
:1010B00021FB0121C80206F077FB0121C80206F0DE
:1010C000C8FB4FF4F850019002208DF808008DF80D
:1010D000090000208DF80A0001208DF80B0001A9FD
:1010E000344806F069F80420019001A9324806F05E
:1010F00063F80C2208212F4806F0E9F80C22092198
:101100002C4806F0E4F80C220A212A4806F0DFF801
:101110000C220B21274806F0DAF80C22114625484C
:1011200006F0D5F80C220221234806F0D0F8002161
:101130004FF4006006F08DFBFFF710FA31208DF8B8
:10114000000000208DF801008DF8020001208DF8CC
:101150000300684605F03FFFFFF7BEFE044614B9E2
:10116000FFF7B3FD04461CB91448FFF7ABFB044678
:1011700034B91249B1F854100804FFF78EFB044645
:1011800024B94FF40060FFF757FB0446E4B117E0C1
:1011900098000020980100209C000020142C0140A1
:1011A000C401002080010020000010800080FF802A
:1011B0000C00400000080240000C0240E801002042
:1011C000FE480078032812D1FD4890F8560020B15F
:1011D000FB4890F85600012801D1022500E00025C7
:1011E0002846FFF7DDF90020FFF7D0F90446204636
:1011F0003EBD10B5002006F0FCFB002010BD70B510
:1012000090B004460E46154600BFEE4807F007F8BA
:101210000028FAD1EB4806F0D9FE4FF000600190AB
:10122000E9480290039404950020059006904FF43D
:1012300080600790800008908000099000200A904C
:101240004FF440300B9004200C9003200D904FF48D
:1012500000000E9080100F9001A9DA4806F058FFA8
:101260002021D84806F0A4FF0121D64806F08AFFC5
:1012700010B070BD0146002002E04910421CD0B2FF
:101280000129FAD170472DE9F84F81461746984653
:101290000A9C4FF0000AD3464D464FF0FF36B9F195
:1012A000000F02D12620BDE8F88F0020C64954392E
:1012B0000860C2480078022805D10402780A40EA92
:1012C000C8574FEA68280020C04988604860401E1F
:1012D0000860012048610020C8600861084606F0E7
:1012E000BEFBB9486C38006800F0007008B10E20F1
:1012F000D9E7002C21DDB4F5006F1EDC601E204014
:10130000D8B92046FFF7B6FF0090B148046010201E
:10131000AF494860402088600020C8604FF480607A
:101320000861084606F06FFB1020FFF742F982467D
:10133000BAF1000F03D05046B5E72620B3E7009876
:101340000001A2498860084644604FF0FF30086001
:10135000012048610220C86000200861084606F0AC
:101360007EFB9B48076011209949486040208860B7
:101370000020C8604FF480600861084606F043FB17
:101380001120FFF716F98246BAF1000F01D050463E
:1013900089E79048007800285AD1FEF74EFF17E001
:1013A0004FF4004006F0C2FB70B14FF0000B05E0B7
:1013B0008548006845F82B000BF1010BBBF1080FC5
:1013C000F6D32035844E03E00EB904206BE7761E79
:1013D0007D484C38006840F22A6108400028DFD080
:1013E000082006F0A3FB20B1082006F0AAFB042089
:1013F00059E7022006F09AFB20B1022006F0A1FB7B
:10140000022050E7202006F091FB20B1202006F0BA
:1014100098FB062047E74FF4007006F087FB28B1E1
:101420004FF4007006F08DFB07203CE703E06648B0
:10143000006828602D1D4FF4001006F077FB00288F
:10144000F5D1FEF7FCFE40F2FF5006F07AFB39E0E2
:1014500060480078012835D1002060490870604953
:1014600008706049087058484438006840F22A31D2
:10147000084355494439086053485438006840F0DF
:101480000800514954390860002221464846FFF7B8
:10149000B6FE00E0761E4B485838006800F0006049
:1014A00038B95048007820B94C48007808B9002E67
:1014B000F0D10EB90420F6E64848007810B147484C
:1014C00090F800A05046EEE62DE9FF5F17469846DB
:1014D000DDE90E464FF00009CA464FF0FF3542499C
:1014E0000098086000203849543908603348007873
:1014F000022805D10402780A40EAC8574FEA682852
:101500000020324988604860401E08600120486120
:101510000020C8600861084606F0A1FA2A486C3825
:10152000006800F0007018B10E2004B0BDE8F09F14
:10153000002C21DDB4F5006F1EDC601E2040D8B900
:101540002046FFF797FE834621480460102020497B
:101550004860402088600020C8604FF480600861C7
:10156000084606F050FA1020FFF723F88146B9F13B
:10157000000F03D04846D8E72620D6E7012E6ED9C3
:1015800006FB04F0B0F1007F01D32620CDE74FEA3F
:101590000B100E49886006FB04F048604FF0FF30E6
:1015A0000860012048610220C860002008610846E8
:1015B00006F055FA06480760122017E09800002050
:1015C000E801002058640240802C0140AC0100205A
:1015D00098010020A0000020FFFF7F00A200002053
:1015E000A1000020A3000020A4000020F9494860C9
:1015F000402088600020C8604FF480600861084681
:1016000006F001FA1220FEF7D4FF8146B9F1000F6F
:1016100001D0484689E7F048007800287ED1FEF7DF
:101620000CFE1EE04FF4004006F080FAA0B14FF02F
:10163000000A07E0E9480068E949096841F82A001A
:101640000AF1010ABAF1080FF4D3E5480068203026
:10165000E3490860E34D04E015B9042065E7AEE016
:101660006D1EDE484C38006840F22A3108400028E0
:10167000D8D0082006F05AFA20B1082006F061FA06
:10168000042052E7022006F051FA20B1022006F0B1
:1016900058FA022049E7202006F048FA20B120201D
:1016A00006F04FFA062040E74FF4007006F03EFACD
:1016B00028B14FF4007006F044FA072035E709E03E
:1016C000C6480068C64909680860C5480068001D2A
:1016D000C34908604FF4001006F028FA0028EFD143
:1016E0004FF4807006F022FA20B3BF48007838B17A
:1016F000BD480078012803D0BB480078022819D1E2
:101700000020B44908600C20486040208860002018
:10171000C8604FF480600861084600E011E006F000
:1017200072F90C20FEF745FF8146B9F1000F01D098
:101730004846FAE6FEF783FD40F2FF5006F001FA54
:101740003DE0A5480078012839D10020A74908705C
:101750000120A74908700020A64908709F48443816
:10176000006840F22A3108439C49443908609B488C
:101770005438006840F0080098495439086006FB66
:1017800004F100220098FFF73AFD00E06D1E9A4830
:10179000006800F0006008B9002DF7D10DB90420F1
:1017A000C3E600BF9348007818B990480078002835
:1017B000F8D08E48007810B18C4890F800904846D8
:1017C000B3E61CB504460020019000908B480088C9
:1017D0000004804908600D20486040208860002097
:1017E000C8604FF480600861084606F00CF97B4839
:1017F0004C380068009003E078484C38006800904E
:10180000009800F045000028F6D0012006F08EF97F
:1018100020B1012006F095F901201CBD042006F03E
:1018200085F920B1042006F08CF90320F5E76B4818
:10183000703800680D2801D01020EEE740F2FF500C
:1018400006F07FF965486C38006801900198C0F394
:10185000432020700020E0E72DE9FF5F86B01746A7
:101860009846149D0026002005900490002481468F
:101870000390824602900195DDF818B0DDF818B0AB
:10188000BBF1000F03D126200AB0BDE8F09F002075
:101890005249543908605A4988604860401E0860BF
:1018A000012048610020C8600861084606F0D7F8AA
:1018B0004A486C38006800F0007008B10E20E3E779
:1018C00049480078022805D10502780A40EAC8573D
:1018D0004FEA6828002D1FDDB5F5006F1CDC681E7F
:1018E0002840C8B92846FFF7C5FC0590394805606F
:1018F000102038494860402088600020C8604FF4BC
:1019000080600861084606F07EF81020FEF751FE60
:1019100006461EB13046B7E72620B5E737480088AF
:1019200000042C4908600D20486040208860002099
:10193000C8604FF480600861084606F064F80D2026
:10194000FEF737FE06460EB130469DE723486C3859
:10195000006803904FF0FF341CE0641E27480088A5
:1019600000041C4908600D20486040208860002069
:10197000C8604FF480600861084606F044F80D2006
:10198000FEF717FE06460EB130467DE713486C3869
:1019900000680390039800F4807008B9002CDCD133
:1019A0000CB9292070E70B480760182009494860E6
:1019B000402088600020C8604FF4806008610846BD
:1019C00006F021F81820FEF7F4FD0646D6B13046A1
:1019D0005AE7000098010020A0000020802C014060
:1019E000A4000020FFFF7F0098000020A20000203C
:1019F000A1000020A3000020006402409C00002001
:101A0000AC0100200020F849087005980001F74952
:101A10008860084645604FF0FF300860012048614B
:101A20000020C8600861084606F019F84FF0FF343E
:101A3000EF48007800287CD1FEF7FFFB43E04FF42D
:101A4000804006F073F8C8B30198A0EB0900202885
:101A500021D20198A0EB090000F0030020B9019801
:101A6000A0EB0900800804E00198A0EB09008008C1
:101A7000401C02904FF0000A09E0DE49DBF800004C
:101A800008600AF1010A0BF1040B09F1040902983C
:101A90008245F2D30FE04FF0000A05E05BF82A0020
:101AA000D44908600AF1010ABAF1080FF6D30BF124
:101AB000200B09F120096FF0404404E0FFE70CB966
:101AC0000420E1E6641ECB484C38006840F21A61FD
:101AD00008400028B3D0082006F028F820B10820DC
:101AE00006F02FF80420CFE6022006F01FF820B100
:101AF000022006F026F80220C6E6102006F016F8AE
:101B000020B1102006F01DF80520BDE64FF400704E
:101B100006F00CF830B14FF4007006F012F8072010
:101B2000B2E606E0FEF78BFB40F2FF5006F009F844
:101B300043E0AF48007801283FD10020AE4908704B
:101B4000A9490870AD490870AA484438006840F2B5
:101B50001A310843A74944390860402229460698AB
:101B6000FFF74DFBA3485438006840F00800A14936
:101B70005439086000E0641EA148006800F000606D
:101B800008B9002CF7D11CB9FFF78CFA04207BE6CA
:101B90004FF0FF3400E0641E9848007820B9964862
:101BA000007808B9002CF6D10CB904206CE69248F4
:101BB000007810B19048007866E640F2FF5005F0DA
:101BC000C0FF04A8FFF7FDFD064603E004A8FFF7E9
:101BD000F8FD06463EB99DF810000728F6D09DF89E
:101BE00010000628F2D030464EE62DE9FF5F84B0A3
:101BF000DDE9124700260020039002900025804670
:101C00008146019007FB04FBDDF810A0DDF810A071
:101C1000BAF1000F03D1262008B0BDE8F09F0020E4
:101C2000744954390860714988604860401E0860F2
:101C3000012048610020C8600861084605F00FFFD8
:101C40006C486C38006800F0007008B10E20E3E7C3
:101C50006C480078022808D10402DDE90601400A38
:101C600040EAC1504912CDE90601002C1FDDB4F550
:101C7000006F1CDC601E2040C8B92046FFF7FAFA4E
:101C800003906148046010205F49486040208860EC
:101C90000020C8604FF480600861084605F0B3FE7C
:101CA0001020FEF786FC06461EB13046B4E726201B
:101CB000B2E7012F6FD907FB04F0B0F1007F01D329
:101CC0002620A9E74F48007838B14E48007801280F
:101CD00003D04C48007802282DD14C4800880004DD
:101CE0004949086037204860402088600020C8606B
:101CF0004FF480600861084605F085FE3720FEF746
:101D000058FC06460EB1304686E73F48076017206C
:101D10003D494860402088600020C8604FF48060E2
:101D20000861084605F06FFE1720FEF742FC0646E4
:101D30000EB1304670E734490698086019204860B3
:101D4000402088600020C8604FF480600861084629
:101D500005F059FE1920FEF72CFC06460EB1304660
:101D60005AE7039800012149886007FB04F04860A6
:101D70004FF0FF300860012048610020C860086112
:101D8000084605F06CFE1A480078002872D1451EFE
:101D9000FEF753FA54E0F8E04FF4804005F0C6FE39
:101DA000B0B3ABEB0800202833D2ABEB080000F057
:101DB000030018B9ABEB0800800803E0ABEB0800A8
:101DC0008008401C01904FF0000909E00949DAF849
:101DD0000000086009F101090AF1040A08F1040889
:101DE00001988145F2D324E0A1000020AC0100203D
:101DF000A0000020802C0140A2000020A3000020B1
:101E00000064024098000020980100209C000020FF
:101E100012E04FF0000905E05AF82900F749086080
:101E200009F10109B9F1080FF6D30AF1200A08F106
:101E300020086FF0404503E00DB90420ECE66D1E6C
:101E4000EE484C38006840F21A3108400028A3D010
:101E5000082005F06BFE20B1082005F072FE04207A
:101E6000DAE6022005F062FE28B1022005F069FEE4
:101E70000220D1E640E0102005F058FE20B11020ED
:101E800005F05FFE0520C7E64FF4007005F04EFE3A
:101E900028B14FF4007005F054FE0720BCE64FF463
:101EA000807005F043FE00B3D548007838B1D448BF
:101EB0000078012803D0D2480078022815D10020EC
:101EC000D04908600C204860402088600020C8602D
:101ED0004FF480600861084605F095FD0C20FEF780
:101EE00068FB06460EB1304696E6FEF7A8F940F2CA
:101EF000FF5005F026FE48E0C3480078012844D191
:101F00000020C24908700120C14908700020C14961
:101F10000870BA484438006840F21A310843B7499B
:101F20004439086007FB04F140220498FFF767F981
:101F3000B2485438006840F00800B049543908608D
:101F40004FF0FF3500E06D1EB348006800F0006000
:101F500008B9002DF7D11DB9FFF7A4F804205BE6FE
:101F60004FF0FF3500E06D1EAA48007820B9A74861
:101F7000007808B9002DF6D10DB904204CE6A3482D
:101F8000007810B1A148007846E640F2FF5005F015
:101F9000D8FD02A8FFF715FC064603E002A8FFF7EC
:101FA00010FC06463EB99DF808000728F6D09DF8BB
:101FB00008000628F2D030462EE610B54FF48070A7
:101FC00005F0B4FD88B392480078012814D10020B0
:101FD0008C4908600C204860402088600020C86060
:101FE0004FF480600861084605F00DFD0C20FEF7F7
:101FF000E0FA8649087002E00020844908707F48B2
:102000004838006840F480707C4948390860081DF1
:1020100000684CF23A31884378494439086001201D
:102020007C4908707948007810BDFFE7022005F070
:102030007DFD78B1022005F084FD704844380068C9
:102040004CF23A3188436D494439086002206F49A7
:102050000870E9E7082005F069FD78B1082005F06F
:1020600070FD6648443800684CF23A318843634951
:1020700044390860042065490870D5E7202005F040
:1020800055FD78B1202005F05CFD5C4844380068BF
:102090004CF23A31884359494439086006205B497B
:1020A0000870C1E7102005F041FD78B1102005F05F
:1020B00048FD5248443800684CF23A3188434F4951
:1020C00044390860052051490870ADE74FF40070AD
:1020D00005F02CFD80B14FF4007005F032FD47484B
:1020E000443800684CF23A31884344494439086026
:1020F00007204649087097E7002095E710B5FFF7DD
:102100005CFF10BD70B50446002514B9262528468D
:1021100070BD4248008800043A4908600D204860BC
:10212000402088600020C8604FF480600861084645
:1021300005F069FC0D20FEF73CFA05460DB1284676
:10214000E6E72E486C38006820602846E0E708B5CE
:10215000002000906846FFF7D5FF08B1FF2008BDBA
:102160000098C0F34320FAE72DE9FE4F83460C4662
:10217000914600200290002625462C46700240EA37
:10218000D5566D020BF00300F0B14FF0000A18E0D5
:102190004FF4007000904FEA4A20471946EBE07375
:1021A0003A461F48FFF76FF802904FF400721C493F
:1021B000584607F0B9F80BF5007B0AF1010000F072
:1021C000FF0ACA45E4DB16E0B9F1010F09D14FF46B
:1021D00000702A46334600905846FFF754F80290A4
:1021E00009E04FF400702A463346CDE9000958460D
:1021F000FFF76AF902900298BDE8FE8F802C01403B
:102200009800002098010020A0000020A2000020DB
:10221000A1000020A3000020006402409C000020D8
:10222000400200202DE9FE4F81460C4692460020D8
:102230000290002625462C46700240EAD5566D02D3
:1022400009F00300F0B14FF0000B18E04FF40072FA
:102250004946194807F068F84FF4007000904FEABB
:102260004B20471946EBE0733A461348FFF7F4FA60
:10227000029009F500790BF1010000F0FF0BD34546
:10228000E4DB16E0BAF1010F09D14FF400702A46E1
:10229000334600904846FFF7DFFA029009E04FF41A
:1022A00000702A463346CDE9000A4846FFF79DFCF8
:1022B00002900298BDE8FE8F400200201CB501216B
:1022C000022005F017FA4FF47070009001208DF88D
:1022D000040000208DF8060003208DF80500012081
:1022E0008DF807006946894804F066FF0120884997
:1022F00008608849C1F8A4021CBD10B58348006875
:1023000020F44020814908600846006840F480209D
:10231000086001207E49091D08607E49C1F8A002BD
:10232000042004F011FD00207949091D08600420F3
:1023300004F00AFD00207749C1F8A00210BD10B5D5
:102340007248006820F44020704908600846006820
:1023500040F48020086000206D4908606D49C1F894
:10236000A402042004F0F0FC0120694908606949D6
:10237000C1F8A402042004F0E7FC10BD10B500244D
:102380006248006820F44020604908600846006800
:10239000086001205E49091D086004F0D5FC012099
:1023A0005C49C1F8A00204F0CFFC07E0601CC4B295
:1023B000FA2C03DDFFF7C3FF012010BD54487C3821
:1023C00000680028F2D15249086000BFF5E710B557
:1023D00000204F4908604D48006820F440204B49D8
:1023E00008600846006840F48020086000204949E1
:1023F000C1F8A402022004F0A7FC012044490860AF
:10240000022004F0A1FC00204249C1F8A00210BD46
:1024100010B500203E4908603C48006820F4402088
:102420003A4908600846006840F4802008600120AE
:102430003849C1F8A402022004F086FC0120344986
:102440000860022004F080FC00203249C1F8A0029C
:1024500010BD70B504462D48006820F440202B497B
:1024600008600846006840F4802008600020284981
:102470000860002517E0E0092549091D086060068D
:10248000040E022004F060FC01202249C1F8A002E1
:10249000022004F059FC00201D490860022004F0CD
:1024A00053FC681CC5B2082DE5DB70BD70B5054650
:1024B00000241648006820F44020144908600846AB
:1024C00000680860002616E0002011490860052019
:1024D00004F03AFC01200F49C1F8A0026006040E86
:1024E0000B487C38006808B1601CC4B2012004F0BD
:1024F0002BFC701CC6B2082EE6DB15B9FFF788FF6F
:1025000001E0FFF764FF204670BD000000040240B8
:10251000A08240420080404270B505460C46FFF75D
:10252000ECFED020FFF795FFFFF728FF18B1FFF76B
:1025300006FF012070BD2846FFF78BFFFFF71EFF47
:102540002046FFF786FFFFF719FF18B1FFF7F7FEE8
:102550000120EFE7FFF7F3FE0020EBE770B504463C
:102560000025BC2C01DB012510E0622C01DB0225DB
:102570000CE02A2C01DB032508E0142C01DB0425E8
:1025800004E00A2C01DB052500E0062529461A2077
:10259000FFF7C2FF70BD70B50446B4F57A7F01DD68
:1025A0004FF47A74042C00DA04244FF47A7090FB10
:1025B000F4F0401EC5B229461920FFF7ADFF0546CD
:1025C000264604EBD671C1F34F00FFF7C7FF70BD7D
:1025D00070B50446FFF791FED020FFF73AFFFFF7F2
:1025E000CDFE2046FFF735FFFFF7C8FEFFF785FE5B
:1025F000D120FFF72EFFFFF7C1FE0020FFF756FFA7
:102600000546FFF79CFE284670BD10B50446E0065F
:10261000010E1C20FFF780FF10BD10B50446E00638
:10262000010E1B20FFF778FF10BD10B5FFF746FE27
:1026300080216B20FFF770FF642004F0CDFB0021A8
:102640006B20FFF769FF0320FFF7E7FF0020FFF78C
:10265000DCFF3220FFF79FFF00213820FFF75CFFEF
:1026600000216A20FFF758FF00212320FFF754FFC5
:1026700080213720FFF750FF7520FFF7A9FF0446A0
:10268000BEA006F0EDFC2146BEA006F0E9FC682CD9
:102690000BD101216B20FFF73FFF00216C20FFF7DA
:1026A0003BFF3220FFF777FF01E0012010BD002043
:1026B000FCE72DE9F04106460F4614461D46FFF79C
:1026C0001CFE002141EA4601C8B2FFF7C2FEFFF737
:1026D00055FE20B1FFF733FE0120BDE8F0813846FA
:1026E000FFF7B7FEFFF74AFEFFF707FE012101EBF8
:1026F0004601C8B2FFF7ADFEFFF740FE0DE0012C2A
:1027000004D10020FFF7D2FE287003E00120FFF77C
:10271000CDFE2870601EC4B26D1C002CEFD1FFF7F7
:102720000EFE0020D9E710B52DED088B82B001AB6D
:10273000022241216820FFF7BCFF9DF805009DF8AB
:10274000041040EA012004B2204608F02AF841ECC7
:102750001B0B9FED8E0B53EC102B07F09DFE41ECF5
:102760001A0B9FED8C0B53EC102B07F0E1FD41ECA5
:10277000190B07F0ABFD08EE100A9FED880A28EE52
:10278000000ABDEEC00A10EE100A00B202B0BDECA5
:10279000088B10BD2DE9FC4104460D4616466B46DC
:1027A000062243216820FFF784FF0746BFB99DF842
:1027B00001009DF8001040EA012000B220809DF841
:1027C00003009DF8021040EA012000B228809DF825
:1027D00005009DF8041040EA012000B23080384620
:1027E000BDE8FC812DE9FC4104460D4616466B46CA
:1027F00006223B216820FFF75CFF0746BFB99DF822
:1028000001009DF8001040EA012000B220809DF8F0
:1028100003009DF8021040EA012000B228809DF8D4
:1028200005009DF8041040EA012000B230803846CF
:10283000BDE8FC812DE9F04105460E461746984655
:10284000FFF75BFD002141EA4501C8B2FFF701FE39
:10285000FFF794FD20B1FFF772FD0120BDE8F08184
:102860003046FFF7F6FDFFF789FD00240CE018F86D
:102870000400FFF7EEFDFFF781FD18B1FFF75FFDE4
:102880000120EBE7601CC4B2BC42F0DBFFF757FD50
:102890000020E3E710B54021414804F009FD802104
:1028A0003F4804F007FDFFF7C0FE02E03DA006F040
:1028B000D7FB02F09EF80028F8D110BD10B580219A
:1028C000374804F0F5FC4021354804F0F3FCFFF7ED
:1028D000ACFE02E036A006F0C3FB02F08AF8002846
:1028E000F8D110BD10B540212D4804F0E1FC802145
:1028F0002B4804F0DFFC314A3149324802F0C9F874
:10290000314A32493248FFF745FF314800882630C6
:1029100000B22F4908802D480088801D00B22B4945
:10292000088029480088103000B22749088010BD6F
:1029300010B580211A4804F0BBFC4021184804F06F
:10294000B9FC244A2449254802F0A3F8244A254921
:102950002548FFF71FFF244800880C3800B22249A1
:102960000880204800880F3800B21E4908801C48A3
:1029700000880D3800B21A49088010BD7265730ACC
:102980000000000025640D0A0000000000000000A7
:1029900000407540A4703D0AD74342400000C84241
:1029A000000402406C20206572726F720A00000001
:1029B0007220206572726F720A00000068000020A9
:1029C00064000020600000207600002074000020D9
:1029D000720000205C0000205800002054000020FD
:1029E000700000206E0000206C00002038B5044606
:1029F000F74890F82400C0B114B10220009001E023
:102A000000200090F24A1268D17BF14A5268107897
:102A10006B460122FFF70EFF10B14FF0FF3038BDBB
:102A20009DF80010EA48417423E0E948807A10B923
:102A30004FF0FF30F3E724B1E548407C08B10020B7
:102A4000EDE714B10120009001E000200090E04A81
:102A50001268D17BDE4A526810786B460122FFF77C
:102A6000E9FE10B14FF0FF30D9E79DF80010D848CB
:102A700041740020D3E738B500241FE0D448006833
:102A8000C07AA04204D0D2480068407DA04200D164
:102A900012E0CF49496808786B4601222146FFF7CA
:102AA00008FE10B14FF0FF3038BD9DF800202146E0
:102AB000C8A006F0D5FA00BF601CC4B2C448406884
:102AC0000079A042DADC0020EEE770B504460D463E
:102AD000BF480068C07AA04204D0BD480068407D6D
:102AE000A04202D14FF0FF3070BDB9484068007974
:102AF000A04202DC4FF0FF30F6E7B549496808789C
:102B00002B4601222146FFF7D4FDEDE738B50446F8
:102B1000AF4890F82300A04201D1002038BD14B185
:102B20003020009001E000200090A948807C20B176
:102B30009DF8000040F002000090A54890F82200A7
:102B400020B19DF8000040F080000090A04A12687B
:102B5000117D9F4A526810786B460122FFF76AFE8A
:102B600010B14FF0FF30D9E7994880F8234000209A
:102B7000D4E738B5044604F0700010B1012000908D
:102B800005E014B10020009001E040200090904A40
:102B90001268917C8E4A526810786B460122FFF7CA
:102BA00049FE20B100218A488172481E38BD9DF837
:102BB000000020F04001864801730020009004F0DE
:102BC000400020B99DF8000040F00400009004F09F
:102BD000200020B99DF8000040F00200009004F0B1
:102BE000100020B99DF8000040F00100009004F0B2
:102BF000080020B99DF8000040F038000090744AA9
:102C00001268D17C724A526810786B460122FFF735
:102C100011FE20B100216E488172481EC6E724B122
:102C2000082C02D00020FFF771FF69488472002150
:102C30000175322004F0D0F80020B7E738B504461B
:102C40006348807CA04201D1002038BD002C46D0D2
:102C50005F4A126811795E4A526810786B46012209
:102C6000FFF727FD10B14FF0FF30EEE79DF80000B1
:102C700020F020000090564A12681179544A526898
:102C800010786B460122FFF7D5FD10B14FF0FF30F1
:102C9000DBE7032004F0A0F8022000904C4890F8F5
:102CA000220020B19DF8000040F0800000904848CC
:102CB00090F8230020B19DF8000040F03000009013
:102CC000434A1268117D424A526810786B460122CD
:102CD000FFF7B0FD002851D04FF0FF30B5E73C4A78
:102CE000126811793A4A526810786B460122FFF750
:102CF000E0FC10B14FF0FF30A7E73548807A00F0D4
:102D0000010028B19DF8000040F02000009004E090
:102D10009DF8000020F0200000902D4A12681179E3
:102D20002B4A526810786B460122FFF783FD10B1E1
:102D30004FF0FF3089E7032004F04EF8244890F864
:102D4000220010B18020009001E000200090204877
:102D500090F8230020B19DF8000040F03000009072
:102D60001B4A1268117D1A4A526810786B4601227C
:102D7000FFF760FD10B14FF0FF3066E71448847430
:102D8000002062E708B51248807A10B94FF0FF3092
:102D900008BD002000900E4A1268D17B0C4A526890
:102DA00010786B460122FFF745FD10B14FF0FF3060
:102DB000EEE7074A12685179054A526810786B4667
:102DC0000122FFF737FD68B14FF0FF30E0E7000068
:102DD000A8000020252335783A20252335780D0AD0
:102DE00000000000F84A12681179F74A526810781A
:102DF0006B460122FFF71EFD10B14FF0FF30C7E711
:102E0000F14890F82400002853D00C200090EE4A9E
:102E100012681179EC4A526810786B460122FFF76C
:102E200009FD10B14FF0FF30B2E7322003F0D4FFBC
:102E3000C0200090E448807A00F0010020B19DF8A5
:102E4000000040F020000090DF4A12681179DE4A4D
:102E5000526810786B460122FFF7ECFC10B14FF07E
:102E6000FF3095E7D848407C10B10220009001E087
:102E700000200090D44A1268D17BD34A526810785F
:102E80006B460122FFF7D6FC10B14FF0FF307FE711
:102E900000200090CC4A12685179CB4A52681078D1
:102EA0006B460122FFF7C6FC002855D04FF0FF30DB
:102EB0006EE704200090C44A12681179C24A526831
:102EC00010786B460122FFF7B5FC10B14FF0FF30D0
:102ED0005EE7BD48807C20B9BB48807A00F00100E5
:102EE00010B94020009001E060200090B64A1268BE
:102EF0001179B54A526810786B460122FFF79AFCA7
:102F000010B14FF0FF3043E7322003F065FFAE48C9
:102F1000407C10B10120009001E000200090AA4AFE
:102F20001268D17BA84A526810786B460122FFF7DD
:102F300081FC10B14FF0FF302AE7A34A12685179A3
:102F4000A14A52681078A04B10330122FFF772FC9F
:102F500010B14FF0FF301BE7002019E770B50446B1
:102F6000002624F00104984890F8240008B10020BD
:102F700070BD9548807A10B94FF0FF30F8E792485D
:102F8000057C807A2040904908740846007CA04265
:102F900002D04FF0FF3600E0002614B98A48007DC9
:102FA00018B10120FFF722FD02E00020FFF71EFD0F
:102FB0003CB1FFF7E7FE20B1834805744FF0FF30C6
:102FC000D6E73046D4E738B504467F48807A10B952
:102FD0004FF0FF3038BDBC2C02DB0120009015E023
:102FE000622C02DB0220009010E02A2C02DB03207E
:102FF00000900BE0142C02DB0420009006E00A2C69
:1030000002DB0520009001E0062000906E48C07AA7
:103010009DF80010884201D10020DBE76A4A12685F
:103020009178694A526810786B460122FFF702FCDA
:1030300010B14FF0FF30CDE79DF800106248C1722B
:103040000020C7E738B50446282C02DD4FF0FF30DA
:1030500038BDDCB90020FFF759FD00208DF80000D5
:1030600007208DF80100584A1268917C564A526830
:1030700010786B460222FFF7DDFB10B14FF0FF30F6
:10308000E6E70021504801750020E1E70120FFF745
:103090003DFD20208DF80000012C06D100208DF888
:1030A00001000520FFF78FFF17E0052C06DC01204B
:1030B0008DF801000520FFF786FF0EE0142C06DCDA
:1030C00002208DF801000A20FFF77DFF05E00320B4
:1030D0008DF801001420FFF776FF9DF8010007210D
:1030E00001EB8010C0B28DF80100374A1268917C64
:1030F000354A526810786B460222FFF79BFB10B1ED
:103100004FF0FF30A4E708212F488172002101739E
:10311000012101750020FFF721FF002098E738B555
:1031200004462948807A10B94FF0FF3038BD264850
:1031300090F8240010B14FF0FF30F7E72248007DEF
:1031400050B134B1282C04DCE0B2FFF77BFF002043
:10315000ECE70020FFF776FF042C01DA042404E0FA
:10316000B4F57A7F01DD4FF47A744FF47A7090FBF6
:10317000F4F0401EC0B20090134A12685178124A0F
:10318000526810786B460122FFF754FB10B14FF0E4
:10319000FF30CBE79DF80000401C4FF47A7191FBA3
:1031A000F0F081B20848C1810146C9894810FFF793
:1031B0000AFF0020BAE738B504460348807A28B9E8
:1031C0004FF0FF3038BD0000A8000020022C06D0D0
:1031D000042C07D0082C08D0102C0CD108E00020BB
:1031E00000900BE00820009008E01020009005E01F
:1031F0001820009002E04FF0FF30E3E700BFF748EF
:10320000407A9DF80010B0EBE10F01D10020D9E722
:10321000F24A1268D179F14A526810786B4601225D
:10322000FFF708FB10B14FF0FF30CBE79DF800002F
:10323000C110EA4841720020C4E738B50446E748A7
:10324000807A10B94FF0FF3038BDFA2C09D0B4F5B0
:10325000FA7F09D0B4F57A7F09D0B4F5FA6F0CD1B2
:1032600008E0002000900BE00820009008E010200B
:10327000009005E01820009002E04FF0FF30E3E7F7
:1032800000BFD648007A9DF80010B0EBE10F01D1E5
:103290000020D9E7D14A12689179D04A5268107853
:1032A0006B460122FFF7C6FA10B14FF0FF30CBE7B3
:1032B0009DF80000C010C94908720020C4E71CB581
:1032C00080208DF80000C54A1268917CC34A52687C
:1032D00010786B460122FFF7ADFA10B14FF0FF30C6
:1032E0001CBD642003F078FD00208DF80000BB4A6F
:1032F0001268917CB94A526810786B460122FFF738
:1033000099FA10B14FF0FF30EAE7B44A1268917DA4
:10331000B24A526810786B460622FFF7CAF910B11C
:103320004FF0FF30DCE79DF80500C007400F9DF827
:10333000031001F0010140EA41009DF8011001F085
:10334000010140EA010494B1012C03D10121A348F9
:10335000C17431E0022C03D10021A048C1742BE0DC
:1033600021469FA005F07CFE4FF0FF30B8E79B4A56
:103370001268D178994A526810786B460122FFF79B
:1033800098F910B14FF0FF30AAE79DF8000000F067
:103390000F042CB99C4805F063FE4FF0FF309FE707
:1033A000042C06D199A005F05BFE01218B48C17465
:1033B00002E000218948C174FF2188488172FF2002
:1033C00086490872FF2185484172C1724FF6FF712C
:1033D000C181FF21017481740121017380F82210E1
:1033E000002180F82310417501751630016041609D
:1033F0008160163880F8241080F82510C1844FF4BD
:10340000FA60FFF71AFF10B14FF0FF3068E70220B3
:10341000FFF7D1FE10B14FF0FF3061E72A20FFF730
:10342000D2FD10B14FF0FF305AE73220FFF777FEA0
:1034300010B14FF0FF3053E70020FFF78FFD10B1C0
:103440004FF0FF304CE70020FFF7F8FB10B14FF0D2
:10345000FF3045E70020FFF78CFB002040E7704776
:103460007CB504460D465D48807A00F0700010B9C6
:103470004FF0FF307CBD594A1268117B574A5268A1
:1034800010786B460622FFF714F910B14FF0FF30A9
:10349000F0E79DF801009DF8001040EA012000B21D
:1034A00020809DF803009DF8021040EA012000B240
:1034B00060809DF805009DF8041040EA012000B2EC
:1034C000A08015B12846FFF7CAFF0020D2E77CB5DF
:1034D00004460D464148807A00F0080010B94FF0CC
:1034E000FF307CBD3D4A1268517B3C4A52681078DF
:1034F0006B460622FFF7DDF810B14FF0FF30F0E722
:103500009DF801009DF8001040EA012000B22080E3
:103510009DF803009DF8021040EA012000B260808F
:103520009DF805009DF8041040EA012000B2A0803B
:1035300015B12846FFF793FF0020D2E7F8B50646FD
:103540000C462648807A10B94FF0FF30F8BD234A68
:103550001268917B214A526810786B460222FFF76D
:10356000A8F810B14FF0FF30F0E79DF801009DF88A
:10357000001040EA012005B214B12046FFF76FFFAA
:1035800016484068B0F9080000EE100AF8EEC00ACC
:1035900000EE105AB8EEC00A70EE600A0F4840689C
:1035A000C08800EE100AB8EE400A80EE801A9FED47
:1035B0001F0A31EE000ADFED1E0A20EE200ABDEEE2
:1035C000C00A86ED000A0020C0E710B588B00446A6
:1035D0001CB94FF0FF3008B010BD2BE0A800002050
:1035E000556E737570706F7274656420736F667456
:1035F000776172652070726F64756374207265768E
:103600002025642E0A000000A0BC000848616C66FA
:103610002073656E7369746976697479207061725C
:103620007420666F756E642E0A00000000000C4264
:1036300000008047206830B9606820B9A06810B9E0
:10364000002008B010BDF9494968087806AB03228C
:103650001146FFF72EF810B14FF0FF30F1E79DF85B
:103660001800082101EB201000F00F00ADF8000059
:103670009DF8190001EB201000F00F00ADF80200DA
:103680009DF81A0001EB201000F00F00ADF80400C7
:1036900020684100BDF90000403091FBF0F000B21D
:1036A000ADF8100060684100BDF90200403091FBA8
:1036B000F0F000B2ADF81200A0684100BDF90400BE
:1036C000403091FBF0F000B2ADF81400D7494968E2
:1036D000087806AB06221146FEF7EBFF10B14FF05B
:1036E000FF30AEE79DF819009DF8181040EA012060
:1036F00000B2ADF808009DF81B009DF81A1040EAD2
:10370000012000B2ADF80A009DF81D009DF81C10C4
:1037100040EA012000B2ADF80C00BDF81000BDF881
:103720000810084400B2ADF81000BDF81200BDF852
:103730000A10084400B2ADF81200BDF81400BDF83C
:103740000C10084400B2ADF81400BDF81000000AD7
:103750008DF81800BDF81000C0B28DF81900BDF842
:103760001200000A8DF81A00BDF81200C0B28DF8E0
:103770001B00BDF81400000A8DF81C00BDF81400F1
:10378000C0B28DF81D00A9494968087806AB062229
:103790001146FFF74FF810B14FF0FF3051E700200E
:1037A0004FE70146A148007A30B1012807D002282E
:1037B00009D003280FD10AE0FA2008800EE04FF468
:1037C000FA7008800AE04FF47A70088006E04FF43F
:1037D000FA60088002E00020088000BF00BF0020DF
:1037E000704701469148407A30B1012807D002283D
:1037F00008D003280CD108E0022008700BE0042058
:10380000087008E00820087005E01020087002E049
:103810004FF0FF30704700BF8448C07C18B1087873
:103820004006000E08700020F4E701467F48C07A89
:10383000082817D2DFE800F01704070A0D10131844
:10384000BC20088013E06220088010E02A20088055
:103850000DE0142008800AE00A20088007E0052017
:10386000088004E000BF00BF0020088000BF00BF48
:103870000020704701466D4890F8240010B14FF0C9
:10388000FF3070476948C08908800020F9E7014689
:1038900000200880401E704701464FF0FF307047FF
:1038A00001466248007A30B1012809D002280CD0C4
:1038B000032814D10EE09FED5E0A81ED000A11E0AD
:1038C0009FED5C0A81ED000A0CE09FED5B0A81ED43
:1038D000000A07E09FED590A81ED000A02E04FF06F
:1038E000FF30704700BF0020FBE701464F48407A99
:1038F00030B1012808D002280AD0032810D10BE0EB
:103900004FF4804008800EE041F69C7008800AE089
:103910004FF48050088006E04FF40060088002E019
:103920004FF0FF30704700BF4048C07C10B108889E
:10393000401008800020F5E701463C48007C0870F4
:103940000020704701463948807A10B10120087084
:1039500001E0002008700020704738B50446334865
:10396000807A10B94FF0FF3038BD304A1268117CB0
:103970002E4A526810786B460222FEF79AFE10B16A
:103980004FF0FF30F0E79DF801009DF8001040EA8D
:10399000012000B220800020E6E72DE9FE4F074617
:1039A000884692461D46DDF830B0002600241F48A8
:1039B00090F8240010B1601EBDE8FE8F0020287032
:1039C0001A48807A10B94FF0FF30F5E71748007CAD
:1039D00010B94FF0FF30EFE71448007C00F04000D2
:1039E00008B1B01CC6B21148007C00F0200008B13C
:1039F000B01CC6B20D48007C00F0100008B1B01C2D
:103A0000C6B20A48007C00F0080008B1B01DC6B27A
:103A1000064A1268917A054A526810786B4602226B
:103A2000FEF747FE60B14FF0FF30C5E7A800002069
:103A300000000343000083423333034233338341A6
:103A40009DF801009DF8001040EA0129B14501DA16
:103A50000020B1E7FA4840684088B9EB600F17DDF5
:103A6000F74A1268517CF64A526810786B46012278
:103A7000FEF71FFE10B14FF0FF309DE79DF80000EC
:103A800000F0100020B1FFF77DF96FF0010093E71F
:103A90005046FFF7E4FCEA4A1268D17AE84A5268D5
:103AA00010786B463246FEF704FE10B14FF0FF303F
:103AB00082E799FBF6F0401E8BF80000002028708A
:103AC000B4422AD0DE48007C00F0080028B3601C15
:103AD0001DF800001DF8041040EA012000B2A8F80B
:103AE0000000E01C1DF80010A01C1DF8000041EAB9
:103AF000002000B2A8F80200601D1DF80010201D73
:103B00001DF8000041EA002000B2A8F8040028785F
:103B100040F008002870A01D84B2B44213D0C848F9
:103B2000007C00F0400070B1601C1DF800001DF822
:103B3000041040EA012000B23880287840F04000AC
:103B40002870A01C84B2B44213D0BD48007C00F0A1
:103B5000200070B1601C1DF800001DF8041040EA40
:103B6000012000B27880287840F020002870A01C46
:103B700084B2B44213D0B248007C00F0100070B19F
:103B8000601C1DF800001DF8041040EA012000B27E
:103B9000B880287840F010002870A01C84B2002063
:103BA0000AE7F8B504460F461646A54890F82400E3
:103BB00010B94FF0FF30F8BDA148807A10B94FF02E
:103BC000FF30F8E79E4A1268917A9D4A5268107851
:103BD0006B460222FEF76DFD10B14FF0FF30EAE7B1
:103BE0009DF801009DF8001040EA0125A54203DA86
:103BF00000203070401EDEE7914840684088B5EBF9
:103C0000600F17DD8E4A1268517C8D4A5268107819
:103C10006B460122FEF74DFD10B14FF0FF30CAE7B1
:103C20009DF8000000F0100020B1FFF7ABF86FF036
:103C30000100C0E7E2B2824B1B68D97A804B5B6817
:103C400018783B46FEF735FD10B14FF0FF30B2E774
:103C500095FBF4F0401E30700020ACE70146784838
:103C600080F82210002070477CB5054674494968E9
:103C7000087801AB04220D21FEF71BFD08B10720D7
:103C80007CBD9DF80700C0F301109DF8041001F001
:103C9000E00140EAE1008DF800009DF80700C0F364
:103CA00081009DF8051001F0E00140EAE1008DF887
:103CB00001009DF8070000F003009DF8061001F0D8
:103CC000E00140EAE1008DF80200002427E01DF841
:103CD000040030B99FED5B0A05EB840080ED000A1B
:103CE0001BE09FED590A05EB840080ED000A0BE014
:103CF00005EB840090ED000ADFED540A20EE200A67
:103D000005EB840080ED000A1DF80400401EC0B2DF
:103D10000DF804000028EBD100BF601CC4B2032CD6
:103D2000D5DB0020ACE7F0B52DED028B83B0064665
:103D30000F4600256846FFF797FF002447E056F836
:103D4000241057F82420881A002801DB014600E0DF
:103D5000414200EE101AB8EEC00ADFED3D0A80EED7
:103D6000208A684600EB840090ED000AB5EEC00A98
:103D7000F1EE10FA18D0684600EB8400D0ED000A8E
:103D800088EE200AF7EE000A70EE608AB0EEE80ACC
:103D90003048D0ED090AB4EEE00AF1EE10FA15DD74
:103DA0000120A040054311E02A4890ED070AB4EE37
:103DB000C80AF1EE10FA06DC90ED080AB4EEC80A63
:103DC000F1EE10FA02D20120A0400543641C032C3E
:103DD000B5DB284603B0BDEC028BF0BDF0B52DED90
:103DE000048B81B006460F460025154949680878BE
:103DF0006B4603220D21FEF75CFC20B1072001B0C9
:103E0000BDEC048BF0BD9DF8000000F01F008DF8A4
:103E100000009DF8010000F01F008DF801009DF8E2
:103E2000020000F01F008DF80200002461E056F847
:103E3000241057F82420881A00280DDB01460CE0D6
:103E4000A8000020000000007B14AE3E1D5A843FF5
:103E50000000804754AF0008414200EE101AB8EE4F
:103E6000C00A5FED050A80EE208A1DF8040068B3E1
:103E7000FE4890ED000AB8EE400ADFEDFD0A80EE44
:103E8000801AF0EE418A05E09FEDFA0A28EE800ADA
:103E9000F0EE408A1DF80400401EC0B20DF8040088
:103EA0000028F1D188EE280AF7EE000A30EE609A79
:103EB000B0EEC90AED48D0ED060AB4EEE00AF1EE24
:103EC00010FA15DD0120A040054311E0E74890ED10
:103ED000040AB4EEC80AF1EE10FA06DC90ED050A09
:103EE000B4EEC80AF1EE10FA02D20120A040054358
:103EF000641C032C9BDB284681E72DE9F04F87B03B
:103F000005460C46914601208DF8100000208DF8E2
:103F10001100D94A1268917CD74A5268107804ABD4
:103F20000222FEF787FC20B14FF0FF3007B0BDE85A
:103F3000F08FC82002F050FF00208DF81000CE4A0C
:103F40001268D17BCC4A5268107804AB0122FEF78C
:103F500071FC10B14FF0FF30E8E7C74A12685179A1
:103F6000C54A5268107804AB0122FEF763FC10B119
:103F70004FF0FF30DAE7C04A1268917CBE4A5268BF
:103F8000107804AB0122FEF755FC10B14FF0FF3062
:103F9000CCE7B94A1268D17DB74A5268107804ABB1
:103FA0000122FEF747FC10B14FF0FF30BEE7B24AE6
:103FB00012681179B04A5268107804AB0122FEF7FA
:103FC00039FC10B14FF0FF30B0E70C208DF8100035
:103FD000A94A12681179A84A5268107804AB0122E4
:103FE000FEF728FC10B14FF0FF309FE70F2002F0E2
:103FF000F3FEA148806A407A8DF810009E4A12684C
:1040000091789D4A5268107804AB0122FEF712FCA9
:1040100010B14FF0FF3089E79748806A007A8DF839
:104020001000954A12685178934A5268107804AB90
:104030000122FEF7FFFB10B14FF0FF3076E7B9F138
:10404000000F07D08C48806A807A40F0E0008DF83D
:10405000100004E08848806A807A8DF81000864A53
:1040600012689179844A5268107804AB0122FEF7F5
:10407000E1FB10B14FF0FF3058E7B9F1000F07D066
:104080007D48806AC07A40F0E0008DF8100003E0BF
:104090007648C07A8DF81000774A1268D179764A4E
:1040A0005268107804AB0122FEF7C4FB10B14FF048
:1040B000FF303BE7B9F1000F02D0C82002F08CFEC0
:1040C00040208DF810006C4A126811796A4A5268D3
:1040D000107804AB0122FEF7ADFB10B14FF0FF30BA
:1040E00024E778208DF81000634A12685179624AFB
:1040F0005268107804AB0122FEF79CFB10B14FF020
:10410000FF3013E75949888902F066FE00208DF8D8
:104110001000594A12685179574A5268107804AB16
:104120000122FEF787FB10B14FF0FF30FEE6524A46
:104130001268917A504A5268107804AB0222FEF756
:10414000B8FA10B14FF0FF30F0E69DF811009DF87D
:10415000101040EA012B0C209BFBF0F0C6B20020AF
:10416000A86068602860A06060602060824665E0AA
:10417000414A1268D17A404A5268107804AB0C2246
:10418000FEF797FA10B14FF0FF30CFE69DF811001F
:104190009DF8101040EA012000B2ADF808009DF82B
:1041A00013009DF8121040EA012000B2ADF80A0099
:1041B0009DF815009DF8141040EA012000B2ADF8FA
:1041C0000C00BDF90810206808442060BDF90A10F1
:1041D000606808446060BDF90C10A0680844A060E5
:1041E0009DF817009DF8161040EA012000B2ADF8C6
:1041F00000009DF819009DF8181040EA012000B257
:10420000ADF802009DF81B009DF81A1040EA01204D
:1042100000B2ADF80400BDF9001028680844286019
:10422000BDF90210686808446860BDF90410A86808
:104230000844A8600AF1010000F0FF0AB24597DBCC
:104240000A48D0F800C02868C117090441EA1041A3
:10425000070462460023384604F0DEFE324600239F
:10426000CDE9020104F0D8FE286007E054AF000851
:1042700000B04C4554E3853FA8000020F848D0F832
:1042800000C06868C117090441EA1041070462468A
:104290000023384604F0C0FE32460023CDE9020177
:1042A00004F0BAFE6860EE48D0F800C0A868C117F4
:1042B000090441EA1041070462460023384604F02D
:1042C000ABFE32460023CDE9020104F0A5FEA86052
:1042D000E348D0F804C02168C817000440EA114838
:1042E0000F04624600233846414604F095FE3246EC
:1042F0000023CDE9020104F08FFE2060D848D0F8F9
:1043000004C06068C117090441EA1041070462460D
:104310000023384604F080FE32460023CDE9020136
:1043200004F07AFE6060CE48D0F804C0A068C117DF
:10433000090441EA1041070462460023384604F0AC
:104340006BFE32460023CDE9020104F065FEA06059
:10435000A068002804DDA068A0F58030A06003E01C
:10436000A06800F58030A0600020DFE538B5044685
:10437000BC4890F82400A04201D1002038BD24B3ED
:10438000B84890F8250010B94FF0FF30F6E700204C
:10439000FEF72CFB0020FEF751FCB249C88CFEF75B
:1043A000BEFE00200090AF49496808786B460122A4
:1043B0002321FEF73FFA0121AA4880F824100120AA
:1043C000FEF714FBFEF7DEFC13E00020FEF70EFB09
:1043D000A448007C0090A349496808786B460122F4
:1043E0002321FEF727FA00219E4880F82410FEF7CB
:1043F000C9FC0020C2E72DE9F04F8DB083460F467F
:1044000002200C90974890F8240020B10020FFF77C
:10441000ADFF012600E0002603A8FFF7C2F905A8BA
:10442000FFF7DFF901A8FFF700FA02A8FFF722FA69
:104430008C4890F80AA004A8FFF77EFA002407E051
:10444000002239465846FFF758FD00B902E0641CC7
:10445000022CF5DB00BF022C01D1002528E000244E
:1044600007E0012206A909A8FFF747FD00B902E00D
:10447000641C022CF5DB00BF022C01D1002517E0E3
:1044800006A93846FFF74FFC00F0FF0809A9584677
:10449000FFF7A4FC00F0FF090025B9F1000F01D1DE
:1044A00045F00105B8F1000F01D145F0020500BF4C
:1044B000FF206C490872FF216A484172C1724FF6B1
:1044C000FF71C181FF218172017401210173BDF867
:1044D0000C00FEF7B2FE9DF81400FEF76CFEBDF86E
:1044E0000400FEF770FDBDF80800FEF718FE504608
:1044F000FEF73FFB9DF81000FEF730FD16B10120DE
:10450000FFF734FF28460DB0BDE8F08FF8B504463C
:104510000D46164616B94FF0FF30F8BD5148807A67
:1045200010B94FF0FF30F8E720128DF80000E0B22C
:104530008DF801009DF8010028444A4949684989DD
:10454000884202DD4FF0FF30E7E7464A1268117EED
:10455000444A526810786B460222FEF76BF910B19C
:104560004FF0FF30D9E7EAB23E4B1B68597D3D4B17
:104570005B6818783346FEF75DF910B14FF0FF30F5
:10458000CBE70020C9E7F8B504460D46164616B934
:104590004FF0FF30F8BD3348807A10B94FF0FF304C
:1045A000F8E720128DF80000E0B28DF801009DF8C8
:1045B000010028442B4949684989884202DD4FF0AF
:1045C000FF30E7E7274A1268117E264A52681078C2
:1045D0006B460222FEF72EF910B14FF0FF30D9E7FB
:1045E000EAB2204B1B68597D1E4B5B681878334636
:1045F000FEF75FF810B14FF0FF30CBE70020C9E7BE
:104600002DE9F04385B005460E469046994615487B
:1046100090F8250020B14FF0FF3005B0BDE8F083E1
:1046200016B94FF0FF30F8E7002428E0281B1028C7
:1046300001DD102000E0281B87B2321939462046E0
:10464000FFF764FF10B14FF0FF30E6E701AA3946EB
:104650002046FFF798FF38B14FF0FF30DDE700004C
:1046600054AF0008A800002030193A4601A904F010
:104670002FFE10B16FF00100CFE7E01984B2AC4219
:10468000D4DB4FEA28208DF8000008F0FF008DF8F9
:104690000100F94A1268917EF74A526810786B4619
:1046A0000222FEF7C7F810B14FF0FF30B5E7012145
:1046B000F14880F82510A0F826900020ADE70146CB
:1046C000ED4890F824000870002070474FF0FF304C
:1046D000704702464FF0FF30704701464FF0FF3001
:1046E0007047F8B505460F461446002C70D0B5F556
:1046F000FF5F01DDFF2605E0202D01DA012601E044
:10470000C5F3471607B90127282C02DD4FF0FF300B
:10471000F8BDD948407D28BBD74890F8240038B16F
:104720000020FFF723FE0121D34880F8201003E08A
:104730000021D14880F82010CF481630FFF731F81B
:10474000CD481830FFF74DF8CB481A30FFF76DF819
:10475000C9481C30FFF78EF8C748817A81771F302F
:10476000FFF7EAF80020FEF741F90020FEF76AFCA7
:1047700000208DF80000C04A12689178BE4A526845
:1047800010786B460122FEF755F810B14FF0FF305C
:10479000BEE740208DF80000B74A1268D17BB64AC8
:1047A000526810786B460122FEF744F800B165E0CC
:1047B0008DF800608DF80170AF4A1268117AAE4A28
:1047C000526810786B460222FEF734F808B155E0C3
:1047D00047E0052002F000FBA748407A072101EBE3
:1047E000C000C0B28DF80000A34A1268D179A24A75
:1047F000526810786B460122FEF71CF800B13DE0CC
:1048000020208DF80000012C03D100208DF801003C
:104810000EE0052C03DC01208DF8010008E0142CCB
:1048200003DC02208DF8010002E003208DF8010076
:104830009DF80100072101EB8010C0B28DF8010046
:104840008D4A1268917C8C4A526810786B4602221D
:10485000FDF7F0FF00B111E001218748417500200C
:1048600056E7854A1632002103E0505C00B105E0AE
:10487000491C0C29F9D34FF0FF3049E7FF207E494E
:104880000872FF217C484172C1724FF6FF71C181ED
:10489000FF2181720174012101730146887FFEF7B7
:1048A00068F97549C88AFEF7C8FC7349087EFEF7A7
:1048B00082FC7149488BFEF786FB6F49888BFEF7B7
:1048C0002EFC6D49C87FFEF749FB6B4890F820002D
:1048D00010B10120FFF74AFD002167484175002013
:1048E00016E710B588B002A905A8FFF784FD0446B5
:1048F000032C41D101A8FEF7D3FF9DED050AB8EEC8
:10490000C00ADDED010A20EE200ABDEEC00A8DEDE1
:10491000050A9DED060AB8EEC00ADDED010A20EE9B
:10492000200ABDEEC00A8DED060A9DED070AB8EE1D
:10493000C00ADDED010A20EE200ABDEEC00A8DEDB1
:10494000070A05A800F04DFA6846FEF7CEFFBDF84D
:104950000010029848430290BDF8001003984843A5
:104960000390BDF8001004984843049002A800F09A
:10497000CBFA002008B010BD0120FBE7014691F9F9
:104980000020002A01DD00201EE091F90020002A0D
:1049900001DA042018E091F90120002A01DD01204C
:1049A00012E091F90120002A01DA05200CE091F9CA
:1049B0000220002A01DD022006E091F90220002AEF
:1049C00001DA062000E00720704710B504462046B3
:1049D000FFF7D4FF0346E01CFFF7D0FF43EAC00017
:1049E00083B2A01DFFF7CAFF43EA801083B21846C6
:1049F00010BD70B50024FDF761FCFEF760FC0028D7
:104A000045D17820FEF7B5F8C4B20CB1012070BDD5
:104A10007820FEF7A3FAC4B20CB10220F7E76420B5
:104A2000FEF77DFBC4B20CB10320F0E700F03EF9C5
:104A3000C4B20CB10420EAE71048FFF7C6FF0546F0
:104A400000F03EF9C4B20CB10520E0E740F273106B
:104A500000F087FDC4B20CB10620D8E7642000F056
:104A6000E9FAC4B20CB10720D1E7FFF73AFF0446D8
:104A700034B10820CBE70000A8000020D4000020BB
:104A80000120FFF773FCC4B20CB10920BFE700207E
:104A9000BDE770B52DED0C8B8EB004460D46164665
:104AA000B7EE000AF0EE409A9FED7C0AB0EE408A25
:104AB0009FED7A0AF0EE408A9FED780AB0EE409AB8
:104AC00007A808A90DAB03AACDE9001009A90BA8F6
:104AD00000F0A6FE20B101200EB0BDEC0C8B70BD25
:104AE000BDF8200000F4807000287CD09DED030A02
:104AF000B8EEC00ADFED6A0A80EE201AF0EE419AA5
:104B00009DED040AB8EEC00ADFED650A80EE201ABA
:104B1000B0EE418A9DED050AB8EEC00ADFED600AED
:104B200080EE201AF0EE418A9DED060AB8EEC00A2A
:104B3000DFED5B0A80EE201AB0EE419AB8EE000A73
:104B400028EE000A20EE090AF0EE000A69EEA00A3B
:104B500000EEA80A10EE101A084606F06BF941ECB8
:104B60001C0BB0EE4C0AF0EE6C0A04F001FEB0EE45
:104B700040BAF0EE60BA9FED4B0B53EC102B51ECAA
:104B80001B0B05F061FE41EC1A0B05F09FFB20604A
:104B9000B8EE000A28EE000A20EE080AF0EE000A3D
:104BA00068EEA00A00EEE80AF7EE000A30EE200AEE
:104BB00010EE101A084606F03DF941EC1C0BB0EE61
:104BC000000A28EE800A20EE090AF0EE000A69EEDB
:104BD000A00A00EE880A10EE101A084606F02AF91C
:104BE00041EC1D0B00E054E0B0EE4C1AF0EE6C1AF4
:104BF000B0EE4D0AF0EE6D0A05F0D6F8B0EE40BA10
:104C0000F0EE60BA9FED270B53EC102B51EC1B0B11
:104C100005F01AFE41EC1A0B05F058FB286029EE4E
:104C2000A90A08EE080A08EEE80A09EE490A10EE99
:104C3000101A084606F0FEF841EC1C0B28EE280A74
:104C400009EE890AF0EE000A20EE200A10EE101A92
:104C5000084606F0EFF841EC1D0BB0EE4C1AF0EEF2
:104C60006C1AB0EE4D0AF0EE6D0A05F09DF8B0EE4C
:104C700040BAF0EE60BA9FED0B0B53EC102B51ECE9
:104C80001B0B05F0E1FD41EC1A0B05F01FFB30603A
:104C900001E0022020E700201EE7000000000000E5
:104CA0000000804E6666666666A64C4010B5C82356
:104CB0004FF48062F74940F6F630FFF7A1FC10BDD3
:104CC00010B586B00446F4A000680390F3A0006815
:104CD0000290F3A000680190F2A00068009004F038
:104CE000030003A9085C8DF8140003A8C4F3C101F4
:104CF000405C8DF8150003A8C4F38111405C8DF869
:104D0000160004F0030002A9085C8DF8100002A848
:104D1000C4F3C101405C8DF8110002A8C4F38111F5
:104D2000405C8DF8120005AA032140F22640FFF7EF
:104D3000EDFB18B14FF0FF3006B010BD04AA0321FF
:104D400040F22A40FFF7E2FB10B14FF0FF30F3E7EB
:104D5000019805900098049004F0040058B19DF863
:104D6000140040F001008DF814009DF8100040F090
:104D700001008DF8100004F0200058B19DF81500D6
:104D800040F001008DF815009DF8110040F0010081
:104D90008DF8110004F4807058B19DF8160040F0B1
:104DA00001008DF816009DF8120040F001008DF80A
:104DB000120005AA03214FF48860FFF7A7FB10B18A
:104DC0004FF0FF30B8E704AA032140F23140FFF76B
:104DD0009DFB10B14FF0FF30AEE7B34804810020D7
:104DE000AAE71FB50446B048007A00F0030054F863
:104DF00020000190AC48007A00F0040010B1019846
:104E000040420190A848007AC0F3C10054F8200045
:104E10000290A548007A00F0200010B102984042AC
:104E20000290A148007AC0F3811054F8200003904A
:104E30009D48008900F4807010B1039840420390AF
:104E40009A49019880FB0101800F40EA810001909E
:104E50009649029880FB0110820042EA917002900C
:104E60009249039880FB0110820042EA91700390FE
:104E70000198000E8DF800000198000C8DF80100DB
:104E80000198000A8DF802000198C0B28DF8030065
:104E90006A4604214FF47470FFF738FB18B14FF0E5
:104EA000FF3004B010BD0298000E8DF8000002988B
:104EB000000C8DF801000298000A8DF8020002989B
:104EC000C0B28DF803006A4604214FF47570FFF7F5
:104ED0001DFB10B14FF0FF30E3E70398000E8DF893
:104EE00000000398000C8DF801000398000A8DF86B
:104EF00002000398C0B28DF803006A4604214FF403
:104F00007670FFF703FBCCE770B588B0064601A8C2
:104F1000FEF7EBFCBDF804000021C90341EA50454F
:104F2000C4036148007A00F0030056F820000590A1
:104F30005D48007A00F0040010B1059840420590E9
:104F40005948007AC0F3C10056F820000690564830
:104F5000007A00F0200010B10698404206905248B6
:104F6000007AC0F3811056F8200007904E4800895F
:104F700000F4807010B10798404207900598C1175F
:104F8000A0FB042301FB043100FB0510810041EA72
:104F9000927005900698C117A0FB042301FB043111
:104FA00000FB0510810041EA927006900798C11736
:104FB000A0FB042301FB043100FB0510810041EA42
:104FC000927007900598000E8DF808000598000C67
:104FD0008DF809000598000A8DF80A000598C0B2FE
:104FE0008DF80B000698000E8DF80C000698000C4A
:104FF0008DF80D000698000A8DF80E000698C0B2D4
:105000008DF80F000798000E8DF810000798000C1F
:105010008DF811000798000A8DF812000798C0B2A9
:105020008DF8130002AA0C214FF42570FFF76EFAD9
:1050300008B070BD30B585B004461DA207CA02ABEA
:1050400007C3C82C03DD4FF0FF3005B030BDC820CA
:1050500090FBF4F0401E85B2280A8DF80000E8B2FB
:105060008DF801006A46022140F21620FFF74EFA41
:1050700010B14FF0FF30E8E702AA0C2140F6C12042
:10508000FFF744FA10B14FF0FF30DEE706488481A5
:105090000020DAE77CAF00084CCD6C000CC92C0076
:1050A00036567600264666004004002009E3CA0210
:1050B000FEF2ABC4AAF1DFDFBBAFDFDF0146F94888
:1050C0008089088000207047F0B52DED028B83B0F9
:1050D00006460F4606F0070010B1B7F5C86F05DDAC
:1050E0004FF0FF3003B0BDEC028BF0BD00EE107A44
:1050F000B8EE400ADFEDEC0A80EE208A01A8FEF748
:1051000070FB9DF80400022806D0042817D0082858
:1051100028D010284CD138E09FEDE40A28EE000A90
:10512000BCEEC00A10EE100A84B29FEDE10A28EE30
:10513000000ABCEEC00A10EE100A85B23BE09FEDFB
:10514000DD0A28EE000ABCEEC00A10EE100A84B296
:105150009FEDD90A28EE000ABCEEC00A10EE100A34
:1051600085B228E09FEDD50A28EE000ABCEEC00A01
:1051700010EE100A84B29FEDD20A28EE000ABCEEAF
:10518000C00A10EE100A85B215E09FEDCE0A28EE97
:10519000000ABCEEC00A10EE100A84B29FEDCA0AE3
:1051A00028EE000ABCEEC00A10EE100A85B202E03A
:1051B0004FF0FF3096E700BF20128DF80800E0B2F4
:1051C0008DF8090028128DF80A00E8B28DF80B005E
:1051D00006F00100A0B102AA02214FF4EA70FFF725
:1051E00095F910B14FF0FF307CE70DF10A02022172
:1051F0004FF49270FFF78AF910B14FF0FF3071E76A
:1052000006F00200A0B102AA02214FF4EC70FFF7F1
:105210007DF910B14FF0FF3064E70DF10A02022171
:105220004FF49470FFF772F910B14FF0FF3059E767
:1052300006F00400A0B102AA02214FF4EE70FFF7BD
:1052400065F910B14FF0FF304CE70DF10A02022171
:105250004FF49670FFF75AF910B14FF0FF3041E765
:1052600000203FE738B504460020009004F001001C
:1052700020B19DF8000040F03000009004F00200E2
:1052800020B19DF8000040F00C00009004F00400F4
:1052900020B19DF8000040F0030000906A46012113
:1052A0004FF4A470FFF732F938BD38B50446012C2D
:1052B00001DA012402E0042C00DD0424601EC0B2E7
:1052C00000906A46012140F24F10FFF71FF938BDE8
:1052D00038B50446052094FBF0F085B228128DF80D
:1052E0000000E8B28DF801006A4602214FF4EF7029
:1052F000FFF70CF938BD38B50446052094FBF0F0F3
:1053000085B228128DF80000E8B28DF801006A46D7
:1053100002214FF4ED70FFF7F9F838BDF8B50546F6
:105320000E464FF47A7095FBF0F000FB06F4200E69
:105330008DF80000200C8DF80100200A8DF8020085
:10534000E0B28DF803006A4604214FF4AE70FFF717
:10535000DDF8F8BD38B50446052094FBF0F084B2C2
:1053600020128DF80000E0B28DF801006A4602219B
:105370004FF4AD70FFF7CAF838BD38B504460520C4
:1053800094FBF0F084B220128DF80000E0B28DF8AA
:1053900001006A4602214FF4AC70FFF7B7F838BD40
:1053A00038B5044614B94FF0FF3038BD6A460421C1
:1053B0004FF45870FFF7E7F810B14FF0FF30F4E703
:1053C0009DF8000000069DF8011040EA01409DF89C
:1053D000021040EA01209DF80310084320600020DD
:1053E000E3E738B50446200E8DF80000200C8DF858
:1053F0000100200A8DF80200E0B28DF803006A4631
:1054000004214FF45870FFF781F838BD38B50446D1
:1054100014B94FF0FF3038BD6A4604214FF4717063
:10542000FFF7B1F810B14FF0FF30F4E79DF800003E
:1054300000069DF8011040EA01409DF8021040EA84
:1054400001209DF80310084300EB800080002060DD
:105450000020E0E738B504461420B4FBF0F4200E39
:105460008DF80000200C8DF80100200A8DF8020054
:10547000E0B28DF803006A4604214FF47170FFF723
:1054800045F838BD38B5044604B320208DF8000037
:1054900028208DF8010030208DF8020038208DF88A
:1054A000030018E04004002000004843000080464C
:1054B00000004046000000460000C0450000804556
:1054C00000004045000000450000C044A322042124
:1054D000684603F06EFF6A46042140F69E20FFF7FF
:1054E00015F8FDF74FFC38BD38B5044664B1C0204F
:1054F0008DF80000C2208DF80100C4208DF8020054
:10550000C6208DF8030004E08B220421684603F0D6
:1055100050FF6A46042140F69820FEF7F7FFFDF79A
:1055200031FC38BD3EB504466CB1FDA1D1E9002087
:105530008968CDE9002002916A4609214FF49760FD
:10554000FEF7E4FF3EBDF9A2D2E900109268CDE972
:10555000010200916A4609214FF49760FEF7D6FFD9
:10556000F0E73EB5044602208DF80000CA208DF811
:105570000100E3208DF8020009208DF803006A463F
:1055800004216820FEF7C2FFA3208DF8000004F07C
:10559000400048B1C0208DF80100C8208DF80200FD
:1055A000C2208DF8030006E0A3208DF801008DF8DD
:1055B00002008DF8030004F4C07048B1C4208DF8D7
:1055C0000400CC208DF80500C6208DF8060006E00A
:1055D000A3208DF804008DF805008DF80600A320A7
:1055E0008DF807008DF808008DF809006A460A2139
:1055F00040F6A720FEF78AFF04F0030018B1202030
:105600008DF8000002E0D8208DF800006A460121E4
:1056100040F6B620FEF77AFF04F0200018B1012012
:10562000FFF780FF02E00020FFF77CFF04F4C0706A
:1056300008B304F4807060B1B2208DF800008B20B4
:105640008DF80100B6208DF802009B208DF8030034
:105650000BE0B0208DF8000080208DF80100B42010
:105660008DF8020090208DF803006A46042140F670
:10567000A220FEF74BFF04F0010020B3F8208DF8C4
:1056800000006A4601214FF40B60FEF73FFFFA214C
:105690000720FFF719FD0720FFF7E4FD0120FFF7C2
:1056A00004FE6420FFF714FE4FF4FA70FFF723FEA8
:1056B000C821A148FFF732FE2820FFF74BFE0A2041
:1056C000FFF75BFE08E0D8208DF800006A46012154
:1056D0004FF40B60FEF71AFF04F0020018B1D92056
:1056E0008DF8000002E0D8208DF800006A46012104
:1056F00040F23D70FEF70AFF04F0040018B10120EB
:10570000FFF7F2FE02E00020FFF7EEFE04F01000CB
:1057100018B10120FFF7B6FE02E00020FFF7B2FE4D
:1057200044F0080085494881FDF72CFB002083499F
:10573000887304F0400018B10846807B801D887390
:1057400004F4C07020B17D48807B801D7B49887344
:1057500004F0140020B17948807B103077498873B9
:1057600004F0030020B17548807B001D73498873E5
:1057700000203EBD014671484089088000207047E6
:105780002DE9F0410446E07800F0C006E07800F032
:105790003F05607800F0010098B1EF102846E91746
:1057A00005EB5171C910A5EBC101491C01F0FF08BF
:1057B0006248006820B16148414602683846904717
:1057C00000BF607800F0080030B15C48406818B154
:1057D000B0115A4A516888470020BDE8F08110B5E1
:1057E00086B0044656A207CA03AB07C357A207CA2E
:1057F0008DE80700012C09D0022C0ED103AA0B2141
:1058000040F68220FEF782FE06B010BD6A460B21EC
:1058100040F68220FEF77AFEF6E74FF0FF30F3E71E
:105820002DE9F04F8DB00746884615469946DDE9CB
:10583000166B0024002030804049887B5A4605A919
:10584000FEF7AFF918B1601E0DB0BDE8F08F3B4810
:10585000807A00F01400002861D09DF81400000642
:105860009DF8151040EA01409DF8161040EA01200D
:105870009DF81710084328609DF8180000069DF851
:10588000191040EA01409DF81A1040EA01209DF8E5
:105890001B10084368609DF81C0000069DF81D1051
:1058A00040EA01409DF81E1040EA01209DF81F10BB
:1058B0000843A8609DF8200000069DF8211040EAEA
:1058C00001409DF8221040EA01209DF82310084372
:1058D000E86004F11000C4B2286800140190686800
:1058E00000140290A86800140390E8680014049063
:1058F00001984043029901FB0100039901FB01005B
:10590000049901FB010ABAF1706F02DBBAF1885FFA
:1059100022DDFDF737FA00203080401E94E721E0B9
:10592000B8AAB38DB4980D355D000000B8AAAAAA34
:10593000B088C3C5C700000009E3CA0240040020C4
:10594000D8B1B9F38BA391B609B4D900DAB1B9F3E0
:105950008BA391B6DAB4DA00B6F9000040F4807097
:10596000308000BF3448807A00F0400020B305A9A1
:10597000601C085C095D40EA012000B2A8F8000044
:1059800005A9E01C095C05AAA01C105C41EA0020E6
:1059900000B2A8F8020005A9601D095C201D105C7A
:1059A00041EA002000B2A8F80400A01DC4B2B6F974
:1059B000000040F0080030801F48408900F4C070AB
:1059C00008B305A9601C085C095D40EA012000B22B
:1059D000388005A9E01C095C05AAA01C105C41EAFE
:1059E000002000B2788005A9601D095C201D105CB4
:1059F00041EA002000B2B880A01DC4B2B6F9000090
:105A000040F0700030800C48807A00F0030018B13C
:105A100005A90819FFF7B4FE4846FDF720FD002050
:105A200012E7014604480160002070470146024821
:105A300041600020704700004004002070B505461A
:105A40000C46FCF75AFC8020FCF703FDFCF796FCA3
:105A50002846FCF7FEFCFCF791FC2046FCF7F9FC1D
:105A6000FCF78CFCFCF76BFC70BD70B50446FCF7D2
:105A700044FC8020FCF7EDFCFCF780FC2046FCF7A2
:105A8000E8FCFCF77BFCFCF738FC8120FCF7E1FC30
:105A9000FCF774FC0020FCF709FD0546FCF74FFC01
:105AA000284670BD10B500210846FFF7C7FF10BD9E
:105AB00010B5FCF703FCFFF7F5FF10BD70B52DED39
:105AC000088BF0EE408A9FEDFE0AB0EE408A18EE99
:105AD000900A05F0AFF941EC1A0B9FEDFA0B53EC6D
